:100316001408003F0006005B004F0066006D007D7C
:060326000007007F006FDC
:0F02E70025E02408F808E6F580C2A67F0A7E000D
:1002F600E4FDFCC3ED9FEC9E5015E4FBFA0BBB003E
:0F030600010AEB64724A70F50DBD00010C80E432
:0103150022C5
:1001110075B0F0E5B064F060661202F2E5B064F02B
:10012100605DAFB0EF2490602324C0601724E060CD
:100131000B24F0701DE4F51DF51E8016751D00756C
:100141001E01800E751D00751E028006751D00754D
:100151001E0375B00FAFB0EF24F9601324FC600BE0
:1001610024FE6003148013740480067408800274F2
:100171000C251EF51EE4351DF51DE5B0B40FFB225F
:07008F00120111AF1EAE1DAE
:10009600E4FDFCEE7070EFB40E00506A9000A9F813
:1000A6002828730200D30200D90200DF02010C02E5
:1000B60000E50200EB0200F102010C0200F702006B
:1000C600FD02010302010C02010C0201097C007D04
:1000D6000180337C007D02802D7C007D0380277C9F
:1000E600007D0480217C007D05801B7C007D0680D0
:1000F600157C007D07800F7C007D0880097C007DD3
:0A010600098003E4FCFDAE04AF0520
:0101100022CC
:040299008E258F26F9
:10029D00EA7042EB24F9601424FC602E24087035BA
:1002AD00E5262DF528E5253CF5278029D3E5269D66
:1002BD00E5259C400AE5269DFFE5259CFE8012C3A1
:1002CD00ED9526FFEC9525FE8007AE25AF26120194
:0902DD00818E278F28AE27AF287F
:0102E60022F5
:0401E8008E258F26AB
:1001EC009000007C007D0A1201938E278F28AE258B
:1001FC00AF267C007D0A1201938C298D2AE52845B7
:10020C002760117580FFD2A77580FEC2A7D2A6E524
:10021C00281202E77580FFD2A77580FDC2A7D2A66F
:10022C00E52A1202E7E5264525600CA3E582B450C9
:07023C00CCE583B4BDC7222D
:010243002298
:10024400E4F51FF520F521F522E4FFFE1201E8751F
:10025400B0F0E5B064F060FA12008F8E1F8F207545
:10026400B0F0E5B064F060FA120111851D23851E1B
:100274002475B0F0E5B064F060FA12008F8E218F1F
:1002840022AB24AA23AD22AC21AF20AE1F120299C7
:050294001201E880B436
:03000000020003F8
:0C000300787FE4F6D8FD75812A02004ADF
:10018100EF8DF0A4A8F0CF8CF0A428CE8DF0A42E92
:02019100FE224C
:10019300BC000BBE0029EF8DF084FFADF022E4CC50
:1001A300F875F008EF2FFFEE33FEEC33FCEE9DEC19
:1001B300984005FCEE9DFE0FD5F0E9E4CEFD22ED5F
:1001C300F8F5F0EE8420D21CFEADF075F008EF2FA9
:1001D300FFED33FD4007985006D5F0F222C398FD9A
:0501E3000FD5F0EA2237
:10000F00020244E493A3F8E493A34003F68001F2C1
:10001F0008DFF48029E493A3F85407240CC8C333F2
:10002F00C4540F4420C8834004F456800146F6DFC1
:10003F00E4800B0102040810204080900316E47E38
:10004F00019360BCA3FF543F30E509541FFEE493B6
:10005F00A360010ECF54C025E060A840B8E493A37D
:10006F00FAE493A3F8E493A3C8C582C8CAC583CAA8
:10007F00F0A3C8C582C8CAC583CADFE9DEE780BE60
:01032C0000D0
:00000001FF
