:10019E0002080000020A00000A0C3F065B4F666D63
:0401AE007D077F6FDB
:10017E00E4FDFCC3ED9FEC9E5015E4FBFA0BBB00B7
:0F018E00010AEB64724A70F50DBD00010C80E4AC
:01019D00223F
:04008F00AB07AA060B
:100093007C007D0A1200E48E168F17AE02AF037C3C
:1000A300007D0A1200E48D827580FFD2A77580FE61
:1000B300C2A7D2A6740C2517F8E6F580C2A67F0A5C
:1000C3007E0012017E7580FFD2A77580FDC2A7D284
:1000D300A6AF82740C2FF8E6F580C2A67F0A020150
:0100E3007E9E
:0C01B300D28C438901758C4B758A0D229B
:0B01BF00D28E438950E4F58DF58B22B1
:100139001201B31201BF308D290509E509700205C5
:1001490008758C4B758AFDC28DE5096414450870E4
:1001590011050BE50B7002050AE4F508F509B290E3
:10016900B290E58BD394634003E4F58BAF8B7E00AB
:0501790012008F80C19F
:03000000020003F8
:0C000300787FE4F6D8FD75811702004AF2
:1000E400BC000BBE0029EF8DF084FFADF022E4CC00
:1000F400F875F008EF2FFFEE33FEEC33FCEE9DECC9
:10010400984005FCEE9DFE0FD5F0E9E4CEFD22ED0E
:10011400F8F5F0EE8420D21CFEADF075F008EF2F58
:10012400FFED33FD4007985006D5F0F222C398FD49
:050134000FD5F0EA22E6
:10000F00020139E493A3F8E493A34003F68001F2CD
:10001F0008DFF48029E493A3F85407240CC8C333F2
:10002F00C4540F4420C8834004F456800146F6DFC1
:10003F00E4800B010204081020408090019EE47EB2
:10004F00019360BCA3FF543F30E509541FFEE493B6
:10005F00A360010ECF54C025E060A840B8E493A37D
:10006F00FAE493A3F8E493A3C8C582C8CAC583CAA8
:10007F00F0A3C8C582C8CAC583CADFE9DEE780BE60
:0101B200004C
:00000001FF
