:100D150054494D453A00454153592043414C454EB0
:100D250044415200544F44415920524F4F4D205495
:100D3500454D5000484F542100434F4F4C2100432F
:100D45004F4C44210043555252454E542054494D71
:050D5500453A0000001A
:0C108A0007081432050E070116010F00C4
:020EFA00A90746
:100EFC00E4FFFEE4FDFCE9FBC3ED9BEC9400500722
:100F0C000DBD00010C80EF0FBF00010EEF64724E9F
:020F1C0070E182
:010F1E0022B0
:0710A200AE071FEE70FA22F9
:101048007580FFC2B5D2B6D2B4AF80C2B4EF20E784
:01105800F6A1
:011059002274
:10106B00AE07121048C2B5C2B68E80D2B4C2B4223B
:0B0FBC007C007D0A120650ED2430FF7F
:100FC700AE07121048D2B5C2B68E80D2B4C2B422D0
:040F9F00E4FD7F01ED
:100FA300EF24FE600804700CED44808003ED44C020
:090FB300FF12106B7E007F012289
:10100D007F3812106B7F0C12106B7F0112106B7FEB
:04101D000602106B4C
:0B0E51007F02120FA37BFF7A0D7915C2
:100E5C008B348A358936AB34AA35A9361205F8603D
:100E6C00130536E5367002053514F91205F8FF1234
:050E7C000FC780E22217
:060F1F00C292C290D292C2
:100F2500E4FBFAC290EF139291D290EFC313FF0B3B
:0A0F3500BB00010AEB64084A70E9F2
:010F3F00228F
:100F6100D290E4FDFCC290EFC313FF30910343071D
:0E0F710080D2900DBD00010CED64084C70E7BD
:010F7F00224F
:0F107B00AE05120F1FAF06120F25D290C29222A0
:10105A00EFC4540FFEEF540FFFEE75F00AA42FFFF2
:01106A002263
:10103500EF75F00A84FEEF75F00A84EEC454F025CE
:02104500F0FFBA
:011047002286
:0A109700120F1F120F61D290C292D7
:0110A100222C
:0710A900AD077F8E02107BF2
:100E81007C80E4FF1210A9900000AF8274082FF853
:100E9100E6FF121035AD07AF0412107B0C0CA3E571
:0C0EA100826407458370E37F010210A902
:100F40007981900000AF0112109712105AAE82748E
:100F5000082EF8A6070909A3E5826407458370E512
:010F6000226E
:100FD700EF75F00A84FEEF75F00A84ADF0EE243069
:0B0FE700FF120FC7ED2430FF020FC700
:100D5A0078247C007D007BFF7A0D794A7E007F1023
:100D6A001205D2120F40120F9F7B007A00792412CB
:100D7A000E5C120E51AF0A120FD77F3A120FC7AF8D
:100D8A0009120FD77F3A120FC7AF08120FD77F2069
:030D9A00020FC77E
:100D9D00120F407537FF75380D75391B7B007A00C2
:100DAD007924120745120F9F7B007A007924120EC9
:100DBD005C120E51AF0E120FD77F2D120FC7AF0C55
:100DCD00120FD77F2D120FC7AF0B120FD77F200237
:020DDD000FC73E
:100F8000D2A200C2A27F501210A2D2A27F0A1210D7
:0E0F9000A2A2A292007F141210A2D2A2A2006E
:010F9E002230
:020ED400AD0768
:100ED600E4FBFAD2A2C2A200ED1392A27F0F121077
:100EE600A2EDC313FD000BBB00010AEB64084A70B8
:030EF600E2D2A2A3
:010EF90022D6
:100DDF00E4FBFAD2A2C2A200D2A200A2A2E433F58F
:100DEF00827583007F0A1210A2AF82EFC4333333B0
:100DFF005480FFEDC3134FFD000BBB00010AEB64E2
:080E0F00084A70CFD2A2AF0522
:010E170022B8
:100B5800120F807FCC120ED47F44120ED4120F8055
:100B68007FCC120ED47FBE120ED4120DDFAC07124A
:100B78000DDF7524008F25E525752500F524AF04C4
:100B8800EF4225E4AC24AD25120206E4FBFA7920F5
:100B9800783F1200FBE4FBFAF9783F12000A1202D0
:100BA8003F8E248F25120F9F7BFF7A0D7929120E15
:100BB8005C7F02120FA3AE24AF257C007D64120671
:100BC80050EF2430FF120FC7AE24AF257C007D0AFA
:100BD800120650120FBC7F2E120FC7AE24AF25127B
:100BE8000FBC7FDF120FC77F43120FC77F20120F82
:100BF800C7D3E5259418E524940140087BFF7A0DB6
:100C080079398024D3E5259478E524940040087B3D
:100C1800FF7A0D793E8011D3E525940AE5249400E6
:100C280040097BFF7A0D7944120E5C7F20020FC7C2
:100E180020B0247F0A120EFA20B019E50F14600CD6
:100E280014600E2402700D750F018008750F028082
:100E380003E4F50F30B0FD20B20E7F0A120EFA203F
:090E4800B206120FF230B2FD22D5
:10102100D2AF758920758DFD758BFDC29FD29EC291
:04103100ABD28E228E
:100FF200E4FFFE74082FF8E6F5993099FDC2990FC7
:0A100200BF00010EEF64074E70E915
:01100C0022C1
:100CC400E4F522F52312100D120E81121021E4FF17
:100CD4001210A90523E52370020522C394B8E52266
:100CE400940B4028E4FF1210A9E50F14600C146063
:100CF4000E2402700D120D5A8008120D9D800312ED
:100D04000B58E4F522F5237F011210A9120E188066
:010D1400C21C
:100003000202ABE86480F8E933E83360110460F07E
:10001300ED33EC337009E8FCE9FDEAFEEBFF220463
:1000230060DED3EB9FEA9EE99DE8C2E78CF0C2F75E
:1000330095F0400CE8CCF8E9CDF9EACEFAEBCFFB2A
:1000430012027685D0F05804700320D5B3E804700B
:10005300075002B2D50202B592D5EC0460F7E4CCA6
:10006300C0E0C398F8603B94186008400DD0E0FBF3
:1000730002028DE4FBFAC9FC8028E830E406E4C9F7
:10008300FBE4CAFCE830E305E4C9CACBFCE8540747
:100093006010F8C3E913F9EA13FAEB13FBEC13FC52
:1000A300D8F130F52FC3E49CFCEF9BFFEE9AFEEDF5
:1000B30099FDD0E0FBEF4E4D4C701222DB030202A0
:1000C300B2EC2CFCEF33FFEE33FEED33FDED30E706
:1000D300EB02028DEF2BFFEE3AFEED39FDD0E0FB94
:1000E30050130BBB00030202B5ED13FDEE13FEEF3D
:0800F30013FFEC13FC02028D67
:1000FB00EC4D6011E8497017ED33EC3304600DE4FF
:10010B00FCFFFEFD22E933E8330470F80202AB1268
:10011B00027658046009E4CC248150062850090269
:10012B0002B52840030202B2C0E0EB4A7044B9802A
:10013B0006D0E0FB0202A1EF4E701CBD8008EBFF66
:10014B00EAFEE9FD80EBE98DF0A4FEE5F00201E4A7
:10015B00E9CDF9EAFEEBFFEF89F0A4FCE5F0CE89DF
:10016B00F0A42EFFE435F0CD89F0A42DFEE435F09C
:10017B008067EF4E7005BD80D780C3EF8BF0A4ACCA
:10018B00F0EE8BF0A42CFCE435F0F8EF8AF0A42C05
:10019B00E5F038FCE433CB8DF0A42CFCE5F03BF818
:1001AB00EE8AF0A42CFCE5F038F8E433CF89F0A408
:1001BB002CFCE5F038CF3400CE89F0A42FFFE5F00E
:1001CB003EFEE433C98DF0A42EFEE5F039CD8AF066
:1001DB00A42FFFE5F03EFEE43DFD33D0E0FB5007DE
:1001EB000BBB000F0202B5EC2CFCEF33FFEE33FE22
:0601FB00ED33FD02028D50
:1002010075F020800E75F010800575F0087D007E78
:10021100007F003392D530D5031206A5EC33401090
:10022100EF33FFEE33FEED33FDEC33FCD5F0ED2281
:0E023100E5F0247EA2D513CC92E7CDCEFF22BD
:10023F00EDD2E7CD33EC3392D524814006E4FFFEB7
:10024F00FDFC22FCE4CFCECDCC24E0501174FF8016
:10025F00EDC3CC13CCCD13CDCE13CECF13CF0470B3
:07026F00F030D5DE0206A508
:1006E900E54B2437F8E6054B227834300702783792
:1006F900E475F0011206B30205F82000EB7F2ED253
:10070900008018EF540F2490D43440D4FF30040BE8
:10071900EF24BFB41A0050032461FFE54C600215B1
:100729004C054FE54F7002054E30070D7834E475DE
:10073900F0011206B3EF02063E020EAD7403D207B2
:100749008003E4C207F54B8B348A358936E4F54CCE
:10075900F54EF54FE54C60077F2012072480F575AB
:100769004DFFC201C200C202C203C205C206C208CD
:100779001206F2FF700D3007057F00120735AF4FE3
:10078900AE4E22B4255FC2D5C2041206F2FF24D0B0
:10079900B40A00501A75F00A784C30D50508B6FF2E
:1007A9000106C6A426F620D5047002D20380D924F6
:1007B900CFB41A00EF5004C2E5D204020A22D201D2
:1007C90080C6D20080C0D20280BCD2D580BAD20500
:1007D90080B47F201207242002077401B54C004021
:1007E900F11206E9FF12072402075DD208D206803A
:1007F900951206E9FB1206E9FA1206E9F94A4B7065
:100809000679197A0B7BFF20022EE54C602A7E00BF
:100819008E8275830012061160060EEE654D70F02A
:10082900C2D5EBC0E0EAC0E0E9C0E0EE120A82D02E
:10083900E0F9D0E0FAD0E0FB1205F8FF60AAEBC0BE
:10084900E0EAC0E0E9C0E0120724D0E02401F9D0D1
:10085900E03400FAD0E0FBE54D0460DCD54DD980E9
:1008690087D20280A2120A6560F7E54D7001041271
:1008790002C0A94D600DE54D600914F54D120B0C30
:10088900EF60F3EA30E702F404C3995077EAF425FC
:100899004D0430E701E404F54D800D120A6560C18D
:1008A900EA054D254D1202C0EA784AF630E701E41F
:1008B900254D04D54D0420050114120A82E4C0E037
:1008C900120B0C784AE6601320E70714F612070C9E
:1008D900802204F6D0E014C0E07F0012070CE54D39
:1008E9006007120703154D800B300503120703D06B
:1008F900E002075DD0E00480C5120A6560A0E54DFD
:10090900041202C0784AEAF6E54D200502600104A6
:050919002404120A8213
:10091E0074FF04C0E0120B0C12070CE54D2005020B
:10092E006003120703D0E0B54DE87F451207167835
:10093E004AE67F2B30E7047F2DF404C0E012072433
:10094E00D0E075F00A84C0F012070DD0E012070D4A
:10095E0002075D791080027908C206C2088008D2AB
:10096E00D5790A8004790AC2D5E54D047002F54D99
:10097E00E4FAFDFEFF1206E9FC7B082001131206C5
:10098E00E9FD7B1030000A1206E9FE1206E9FF7B34
:10099E0020EC3382D592D55013C3E43000069FFF6E
:1009AE00E49EFEE42001039DFDE49CFCE4CBF8C232
:1009BE0001EC700CCFCECDCCE824F8F870F3801794
:1009CE00C3EF33FFEE33FEED33FDEC33FCEB33FBC5
:1009DE00994002FB0FD8E9EB300105F8D0E0C4488E
:1009EE00B201C0E00AEC4D4E4F78207B0070C2EA97
:1009FE00B54D0040BCC0E0120A84D0F0D0E020011A
:100A0E0004C4C0E0C4B201C0F012070DD0F0D5F09E
:100A1E00EB02075D1206C307FA5309615807CB4C68
:100A2E0007C74209654F096D44096D4907E043093F
:100A3E00735508A446090245086E470B395007CF77
:100A4E002D07D32E07F62B07D72307F4200B222AC8
:100A5E00078F48000007EEE54DB4FF03754D0612F3
:100A6E0006E9FC1206E9FD1206E9FE1206E9FF7818
:100A7E00430202EF790AA2D5200314300509B910FA
:100A8E00020404B9080104A2D52006025001042074
:100A9E0002689202B54C005034C0E07F203003193A
:100AAE007F30A20272067205500F120ADBC202C21A
:100ABE0006C205C2087F30800F300503E9C0E01280
:100ACE000724300503D0E0F9D0E0B54CCC30051743
:100ADE007F30B9100C1207247F583004077F7880BE
:100AEE0003B908031207243002057F2D0207247F65
:100AFE00202008F87F2B2006F322920280CF7F0061
:100B0E00B4070050052443F8E6FF22286E756C6C7E
:100B1E002900D2011206E93001F8C201784C30D515
:100B2E000108F602078F2D504349581206E9240397
:100B3E00B405004001E4900B3493120715743A1279
:0A0B4E000715D203754C040209617B
:10027600E9D2E7C933E833F892D5EDD2E7CD33ECCE
:0702860033FC5002B2D52247
:10028D00EC30E7100FBF000C0EBE00080DBD0004D2
:10029D000BEB6014A2D5EB13FCED92E7FD2274FF7E
:1002AD00FCFDFEFF22E480F8A2D574FF13FC7D80D7
:0302BD00E480EFEB
:1002C000F920E72824F950037907E4F42402FB1805
:1002D000DBFDE624FB5014E9600DE4F618E604F6B5
:0F02E000B40A08E4F6D9F57401F60A22C2D52251
:1002EF00ED33EC3392D5FA602AB4FF33EDC2E77BDE
:1002FF00FF60067A037914E4227A03791D20D5046E
:10030F007A037918224E614E002B494E46002D4933
:10031F004E4600E47A08F608DAFC7B00740722E800
:10032F00C0E0ECC0E0EDC0E0EEC0E0EFC0E0EA7589
:10033F00F010A4CAABF075F04DA42BFBE435F0FC24
:10034F00EA2410FAEB34C5FBEC34D9FCEDC2E7FF1D
:10035F0075F056A4F42411C5F0F434C58FF0A42A17
:10036F00E5F03BE43CF620E7141204C2D0E0FFD0E6
:10037F00E0FED0E0FDD0E0FC1203F58014F404128F
:10038F0004C2D0E0FFD0E0FED0E0FDD0E0FC1200D0
:10039F00FBD0E0F8E6FAEDD2E7CD33EC332482FB65
:1003AF00E4C3CF33CFCE33CECD33CD33DBF37B07A7
:1003BF0075F00A846004F6081B0AE5F0F6088FF062
:1003CF00740AA4FFACF08EF0740AA42CFEACF050AB
:1003DF00010C8DF0740AA42CFDE435F0F608DBDE79
:0303EF007407226E
:1003F2000202B5EC5D046005E8590470030202AB29
:10040200120276580460F6EC4860F2EC7004FDFECD
:10041200FF22C860DB2481C85009C39860025006DD
:100422000202B29850CAF582E9294B4A7005AB82A2
:100432000202A175F0007C1A7880C3EF9BEE9AED60
:1004420099400DC3EF9BFFEE9AFEED99FDE842F055
:10045200DC23ACF0D0E0FFD0E0FED0E0FDAB8220A8
:10046200E7101BEB60BAEC2CFCEF33FFEE33FEED32
:1004720033FD02028DE803F830E705C0F075F000A5
:10048200EF2FFFEE33FEED33FD40B830E7C280AA16
:100492003F8000004120000042C80000447A000072
:1004A200461C400047C35000497424004B189680F4
:1004B2004CBEBC205A0E1BCA6753C21C749DC5AEEB
:1004C200FB60065407601C23231204F0EB543860CF
:1004D200091204DC1204EB1200FBECF8EDF9EEFA5F
:1004E200EFCB22EB1204EB80F1543803241C90046E
:1004F20092FE93FC0EEE93FD0EEE930ECE93FF2230
:03000000020C38B7
:0C0C3800787FE4F6D8FD75814F020C7F38
:10050200E709F608DFFA8046E709F208DFFA803EDB
:1005120088828C83E709F0A3DFFA8032E309F608C8
:10052200DFFA8078E309F208DFFA807088828C8330
:10053200E309F0A3DFFA806489828A83E0A3F608E4
:10054200DFFA805889828A83E0A3F208DFFA804CBE
:1005520080D280FA80C680D4806980F28033801095
:1005620080A680EA809A80A880DA80E280CA8033FE
:1005720089828A83ECFAE493A3C8C582C8CCC58376
:10058200CCF0A3C8C582C8CCC583CCDFE9DEE78046
:100592000D89828A83E493A3F608DFF9ECFAA9F0C5
:1005A200EDFB2289828A83ECFAE0A3C8C582C8CC1B
:1005B200C583CCF0A3C8C582C8CCC583CCDFEADE34
:1005C200E880DB89828A83E493A3F208DFF980CC96
:1005D20088F0EF60010E4E60C388F0ED2402B4048F
:1005E2000050B9F582EB2402B4040050AF23234536
:0605F20082239005527304
:1005F800BB010689828A83E0225002E722BBFE0201
:09060800E32289828A83E4932233
:10061100BB010CE58229F582E5833AF583E022509E
:1006210006E92582F8E622BBFE06E92582F8E222E8
:0D063100E58229F582E5833AF583E4932202
:10063E00BB010689828A83F0225002F722BBFE019B
:02064E00F32295
:10065000BC000BBE0029EF8DF084FFADF022E4CC8E
:10066000F875F008EF2FFFEE33FEEC33FCEE9DEC57
:10067000984005FCEE9DFE0FD5F0E9E4CEFD22ED9D
:10068000F8F5F0EE8420D21CFEADF075F008EF2FE7
:10069000FFED33FD4007985006D5F0F222C398FDD8
:0506A0000FD5F0EA2275
:0E06A500C3E49FFFE49EFEE49DFDE49CFC2266
:1006B300FAE6FB0808E6F925F0F618E6CA3AF62248
:1006C300D083D082F8E4937012740193700DA3A3C6
:1006D30093F8740193F5828883E4737402936860DA
:0606E300EFA3A3A380DFDA
:100EAD00EFB40A07740D120EB8740A309811A89990
:100EBD00B8130CC2983098FDA899C298B811F630A5
:070ECD0099FDC299F599227D
:100C4400020CC4E493A3F8E493A34003F68001F2F6
:100C540008DFF48029E493A3F85407240CC8C333B1
:100C6400C4540F4420C8834004F456800146F6DF80
:100C7400E4800B010204081020408090108AE47E76
:100C8400019360BCA3FF543F30E509541FFEE49375
:100C9400A360010ECF54C025E060A840B8E493A33C
:100CA400FAE493A3F8E493A3C8C582C8CAC583CA67
:100CB400F0A3C8C582C8CAC583CADFE9DEE780BE1F
:011096000059
:00000001FF
