:1000C3007580FFC2B5D2B6D2B4AF80C2B4EF20E719
:0100D300F636
:0100D4002209
:1000D500AE071200C3C2B5C2B68E80D2B4C2B42276
:1000E500AE071200C3D2B5C2B68E80D2B4C2B42256
:07009C001200E57F2C7E013C
:1000A300E4FDFCC3ED9FEC9E5015E4FBFA0BBB0093
:0F00B300010AEB64724A70F50DBD00010C80E488
:0100C200221B
:10000300E4F508F509F582F5837F381200D57F0CF6
:100013001200D57F011200D57F061200D5E50944F1
:1000230080FF1200D57F621200E57F691200E57F31
:10003300671200E57F441200E57F721200E57F65D9
:100043001200E57F611200E57F6D1200E57F651206
:1000530000E57F7212009CAF82C3740F9F44C0FF00
:100063001200D57F571200E57F431200E57F5A1235
:10007300009C7F011200D50509E50970020508A35C
:10008300641045087004F508F509E582641045839A
:090093007086F583F58202001B62
:030000000200F506
:0C00F500787FE4F6D8FD75810902000355
:00000001FF
