:100494003F065B4F666D7D077F6F0001000200031E
:1004A4000000000400050006000000070008000921
:1004B4000000000000000000000000FE00FD00FB42
:0204C40000F73F
:1005030002120000020A000002080000020E0000AE
:0C05130002100000020C000002140000A6
:1004C600E4FDFCC3ED9FEC9E5015E4FBFA0BBB006C
:0F04D600010AEB64724A70F50DBD00010C80E461
:0104E50022F4
:1002620075B0F0E5B064F0700302035B7F0B7E00B3
:100272001204C6E5B064F06030AFB0EF24906023A2
:1002820024C0601724E0600B24F0701DE4F50CF527
:100292000D8016750C00750D01800E750C00750D24
:1002A200028006750C00750D0375B00FAFB0EF2418
:1002B200F9601324FC600B24FE60031480137404A1
:1002C200800674088002740C250DF50DE4350CF5DA
:1002D2000C0509E50970020508E50D640E450C7070
:1002E20008E509150970021508D3E5099402E50825
:1002F2009400400AE4F50AF50BF508750901E50DCD
:100302006403450C604EE50D6407450C6046E50D3F
:10031200640B450C603EE50D640F450C6036E50D3F
:10032200640E450C602EE50D25E0FFE50C33FE74EE
:100332009E2FF58274043EF583AE0AAF0B7C007DDE
:100342000A1203E87401932FF50BE4933EF50AF5C4
:0A03520014850B15E5B0B40FFB2273
:1004E600D2AFD2A9D28C758901758CED758AFFD2EF
:0D04F600ABD28E438910758DDB758BFF2214
:03000B0002044F9D
:10044F00C0E0C0F0C083C082C0D075D000C000C073
:10045F0001C002C003C004C005C006C007758CED03
:10046F00758AFFAF15AE1412001ED007D006D00547
:10047F00D004D003D002D001D000D0D0D082D0830E
:05048F00D0F0D0E032C6
:03001B000201449B
:10014400C0E0C0F0C0D075D000C000C004C005C07D
:1001540006C007758CDB758AFFE50C60030201E2BB
:10016400E50D24F9602624FC603C24FC6052240C38
:10017400706C851410851511750A00750B007508CF
:1001840000750900750E00750F01804C85141085EB
:100194001511750A00750B00750800750900750EB8
:1001A40000750F028032851410851511750A0075CB
:1001B4000B00750800750900750E00750F03801893
:1001C400851410851511750A00750B0075080075E6
:1001D4000900750E00750F04750C00750D00E50D12
:1001E400640E450C7067E50E7051E50F24FE601631
:1001F40014602214603024037041E511250BF515B9
:10020400E510350A800BC3E511950BF515E510953E
:100214000AF5148020AC0AAD0BAE10AF111203E83E
:100224008E148F15800FAC0AAD0BAE10AF111203F4
:10023400FA8E148F15750E00750F00750800750978
:1002440000750A00750B00750C00750D00D007D001
:0E02540006D005D004D000D0D0D0F0D0E032DB
:04001E008F828E83BC
:100022007C037DE81203FA8E168F177C007D64AF85
:1000320082AE831203FA7C007D0A1203FA8C188DB9
:10004200197C007D0AAF82AE831203FA7C007D0A1E
:100052001203FA8C1A8D1BAE83AF827C007D0A12CA
:1000620003FAE517451660067A007B04801AE51943
:10007200451860067A007B03800EE51B451A7A005C
:1000820060047B0280027B017580FFD2A7E5132505
:10009200E0FFE51233FE74BE2FF58274043EF58351
:1000A200740193F580C2A7E5126003020131E513E2
:1000B20014602A14604714606424037072D2A6C3C9
:1000C200EB9404EA940050047F00804B749425174B
:1000D200F58274043516F583E493FF803AD2A6D3F1
:1000E200EB9402EA940050047F00800F7494251967
:1000F200F58274043518F583E493FF801AD2A6EBD7
:1001020064014A7003FF800F7494251BF582740406
:10011200351AF583E493FF8F80C2A68012D2A674AB
:10012200942DF58274043CF583E493F580C2A60510
:1001320013E51370020512640445127004F512F5FA
:0101420013A9
:010143002299
:080003001204E612026280FB08
:0300000002035C9C
:0C035C00787FE4F6D8FD75811B0203A336
:1003E800EF8DF0A4A8F0CF8CF0A428CE8DF0A42E29
:0203F800FE22E3
:1003FA00BC000BBE0029EF8DF084FFADF022E4CCE7
:10040A00F875F008EF2FFFEE33FEEC33FCEE9DECAF
:10041A00984005FCEE9DFE0FD5F0E9E4CEFD22EDF5
:10042A00F8F5F0EE8420D21CFEADF075F008EF2F3F
:10043A00FFED33FD4007985006D5F0F222C398FD30
:05044A000FD5F0EA22CD
:10036800020003E493A3F8E493A34003F68001F2A8
:1003780008DFF48029E493A3F85407240CC8C33396
:10038800C4540F4420C8834004F456800146F6DF65
:10039800E4800B0102040810204080900503E47EED
:1003A800019360BCA3FF543F30E509541FFEE4935A
:1003B800A360010ECF54C025E060A840B8E493A321
:1003C800FAE493A3F8E493A3C8C582C8CAC583CA4C
:1003D800F0A3C8C582C8CAC583CADFE9DEE780BE04
:01051F0000DB
:00000001FF
