:0E056E003F065B4F666D7D077F6FFEFDFBF75E
:10055D00D3EF9400EE94004007EF1F70F31E80F070
:01056D00226B
:06053700F580C2A67E0063
:10053D00E4FDFCE4FBFAC3EB9FEA9E50070BBB0006
:0F054D00010A80F20DBD00010CED64724C70E4E8
:01055C00227C
:10051000D2A200C2A27F507E0012055DD2A27F024D
:100520007E0012055DA2A2B392007F0F7E0012052D
:060530005DD2A200A20052
:0105360022A2
:0204E400AD0762
:1004E600E4FBFAC2A200ED30E004D2A28002C2A26E
:1004F6007F0A7E0012055DEDC313FDD2A2000BBB81
:0905060000010AEB64084A70DAF6
:01050F0022C9
:1004B600E4FD7C01FBFAC2A200D2A20030A203EC4A
:1004C6004205EC25E0FC7F0A7E0012055DD2A20003
:0D04D6000BBB00010AEB64084A70DBAF05A8
:0104E30022F6
:04032300AB07AA0674
:10032700E4F516F5177C037DE81202C08E0E8F0FD9
:100337007C007D64AF03AE021202C07C007D0A120E
:1003470002C08C108D117C007D0AAF03AE02120231
:10035700C07C007D0A1202C08C128D13AE02AF035F
:100367007C007D0A1202C08C148D157580FFD2A700
:100377000517E517AE1670020516142478F5827472
:10038700053EF583E493F580C2A7D2A6746E250FC8
:10039700F5827405350EF583E493F580C2A67F02D6
:1003A7007E0012053D7580FFD2A70517E517AE162B
:1003B70070020516142478F58274053EF583E493DC
:1003C700F580C2A7D2A6746E2511F5827405351083
:1003D700F583E4931205377580FFD2A70517E51754
:1003E700AE1670020516142478F58274053EF5835F
:1003F700E493F580C2A7D2A6746E2513F58274051F
:100407003512F583E49344801205377580FFD2A730
:100417000517E517AE1670020516142478F58274D1
:10042700053EF583E493F580C2A7D2A6746E251521
:10043700F58274053514F583E493F580C2A67E0032
:0304470002053D6E
:10044A00E4F508F5091205107FCC1204E47F441282
:10045A0004E41205107FCC1204E47FBE1204E412F5
:10046A0004B6750A008F0B1204B6750C008F0DE5E1
:10047A000D450AF508E50BF509AC08AD09E41202C9
:10048A0006E4FBFA7980783D1200FB7BCD7ACC79C1
:10049A004C783D12000AE4FBFA792078411200FBFD
:0C04AA0012023F8E088F09120323809974
:100003000202ABE86480F8E933E83360110460F07E
:10001300ED33EC337009E8FCE9FDEAFEEBFF220463
:1000230060DED3EB9FEA9EE99DE8C2E78CF0C2F75E
:1000330095F0400CE8CCF8E9CDF9EACEFAEBCFFB2A
:1000430012027685D0F05804700320D5B3E804700B
:10005300075002B2D50202B592D5EC0460F7E4CCA6
:10006300C0E0C398F8603B94186008400DD0E0FBF3
:1000730002028DE4FBFAC9FC8028E830E406E4C9F7
:10008300FBE4CAFCE830E305E4C9CACBFCE8540747
:100093006010F8C3E913F9EA13FAEB13FBEC13FC52
:1000A300D8F130F52FC3E49CFCEF9BFFEE9AFEEDF5
:1000B30099FDD0E0FBEF4E4D4C701222DB030202A0
:1000C300B2EC2CFCEF33FFEE33FEED33FDED30E706
:1000D300EB02028DEF2BFFEE3AFEED39FDD0E0FB94
:1000E30050130BBB00030202B5ED13FDEE13FEEF3D
:0800F30013FFEC13FC02028D67
:1000FB00EC4D6011E8497017ED33EC3304600DE4FF
:10010B00FCFFFEFD22E933E8330470F80202AB1268
:10011B00027658046009E4CC248150062850090269
:10012B0002B52840030202B2C0E0EB4A7044B9802A
:10013B0006D0E0FB0202A1EF4E701CBD8008EBFF66
:10014B00EAFEE9FD80EBE98DF0A4FEE5F00201E4A7
:10015B00E9CDF9EAFEEBFFEF89F0A4FCE5F0CE89DF
:10016B00F0A42EFFE435F0CD89F0A42DFEE435F09C
:10017B008067EF4E7005BD80D780C3EF8BF0A4ACCA
:10018B00F0EE8BF0A42CFCE435F0F8EF8AF0A42C05
:10019B00E5F038FCE433CB8DF0A42CFCE5F03BF818
:1001AB00EE8AF0A42CFCE5F038F8E433CF89F0A408
:1001BB002CFCE5F038CF3400CE89F0A42FFFE5F00E
:1001CB003EFEE433C98DF0A42EFEE5F039CD8AF066
:1001DB00A42FFFE5F03EFEE43DFD33D0E0FB5007DE
:1001EB000BBB000F0202B5EC2CFCEF33FFEE33FE22
:0601FB00ED33FD02028D50
:1002010075F020800E75F010800575F0087D007E78
:10021100007F003392D530D503120315EC33401023
:10022100EF33FFEE33FEED33FDEC33FCD5F0ED2281
:0E023100E5F0247EA2D513CC92E7CDCEFF22BD
:10023F00EDD2E7CD33EC3392D524814006E4FFFEB7
:10024F00FDFC22FCE4CFCECDCC24E0501174FF8016
:10025F00EDC3CC13CCCD13CDCE13CECF13CF0470B3
:07026F00F030D5DE0203159B
:10027600E9D2E7C933E833F892D5EDD2E7CD33ECCE
:0702860033FC5002B2D52247
:10028D00EC30E7100FBF000C0EBE00080DBD0004D2
:10029D000BEB6014A2D5EB13FCED92E7FD2274FF7E
:1002AD00FCFDFEFF22E480F8A2D574FF13FC7D80D7
:0302BD00E480EFEB
:0300000002057C7A
:0C057C00787FE4F6D8FD75812002044A67
:1002C000BC000BBE0029EF8DF084FFADF022E4CC22
:1002D000F875F008EF2FFFEE33FEEC33FCEE9DECEB
:1002E000984005FCEE9DFE0FD5F0E9E4CEFD22ED31
:1002F000F8F5F0EE8420D21CFEADF075F008EF2F7B
:10030000FFED33FD4007985006D5F0F222C398FD6B
:050310000FD5F0EA2208
:0E031500C3E49FFFE49EFEE49DFDE49CFC22F9
:00000001FF
