:09022D0007081432050E07011642
:06012D00C293C291D293BF
:10013300E4FBFAC291EF139292D291EFC313FF0B38
:0A014300BB00010AEB64084A70E9F2
:01014D00228F
:10016F00E4FDFCC291EFC313FF309203430780D22B
:0C017F00910DBD00010CED64084C70E710
:01018B002251
:0602370012012D12016FFF
:01023D00229E
:02020F00AE053A
:0C02110012012DAF06120133D291C293EE
:01021D0022BE
:0E021E00EF540FFEEFC4540F75F00AA42EFF2C
:01022C0022AF
:1001BA00EF75F00A84C454F0FEEF75F00A84EE2558
:0201CA00F0FF44
:0101CC002210
:1001DF00EF4E60047D018002E4FD7F8E12020F223C
:1000D5007C80E4FFFE1201DF900000AF8274082FE0
:1000E500F8E6FF1201BAAD07AF0412020F0C0CA31C
:0F00F500E5826407458370E37F017E000201DF2F
:1001CD007580FFC2B5D2B6D2B4AF80C2B4EF20E70E
:0101DD00F62B
:0101DE0022FE
:1001EF00AE071201CDC2B5C2B68E80D2B4C2B42250
:1001FF00AE071201CDD2B5C2B68E80D2B4C2B42230
:10018C00AD07ED75F00A842430FF1201FFED75F018
:0A019C000A84E5F02430FF0201FFA1
:1001A6007F381201EF7F0C1201EF7F061201EF7FFD
:0401B600010201EF52
:10014E007981900000AF0112023712021EAE827446
:10015E00082EF8A6070909A3E5826407458370E512
:01016E00226E
:10008F007F801201EFAF0E12018C7F821201EFAF52
:10009F000D12018C7F841201EFAF0C12018C7F8641
:1000AF001201EFAF0B12018C7FC01201EFAF0A12DA
:1000BF00018C7FC21201EFAF0912018C7FC41201B4
:0600CF00EFAF0802018CF6
:100104001200D51201A6E4FFFE1201DF12014E1205
:10011400008FE4FFFE0FBF00010EBE03F8BFE8F539
:090124007F017E001201DF80DD85
:03000000020003F8
:0C000300787FE4F6D8FD75811002004AF9
:10000F00020104E493A3F8E493A34003F68001F202
:10001F0008DFF48029E493A3F85407240CC8C333F2
:10002F00C4540F4420C8834004F456800146F6DFC1
:10003F00E4800B010204081020408090022DE47E22
:10004F00019360BCA3FF543F30E509541FFEE493B6
:10005F00A360010ECF54C025E060A840B8E493A37D
:10006F00FAE493A3F8E493A3C8C582C8CAC583CAA8
:10007F00F0A3C8C582C8CAC583CADFE9DEE780BE60
:0102360000C7
:00000001FF
