:1001CB001408003F0006005B004F0066006D007DC9
:0601DB000007007F006F29
:1001A500E4FDFCC3ED9FEE6480F8EC648098501587
:1001B500E4FBFA0BBB00010AEB64724A70F50DBD56
:0501C50000010C80DECA
:0101CA002212
:10017500E4F51CF51DAF1DAE1C12011A20B0F67F6B
:100185000A7E001201A520B012051DE51D700205AD
:100195001C6429451C7004F51CF51D20B0D780FB97
:04011A00AB07AA067F
:10011E007C007D0A12008F8E1E8F1FAE02AF037CF5
:10012E00007D0A12008F8D827580FFD2A77580FE2A
:10013E00C2A7D2A6E51F25E02408F808E6F580C27E
:10014E00A67F0A7E001201A57580FFD2A77580FDDD
:10015E00C2A7D2A6AF82EF25E02408F808E6F58004
:07016E00C2A67F0A0201A5F1
:03000000020003F8
:0C000300787FE4F6D8FD75811F02004AEA
:10008F00C2D5EC30E709B2D5E4C39DFDE49CFCEE8C
:10009F0030E715B2D5E4C39FFFE49EFE1200C5C33F
:1000AF00E49DFDE49CFC80031200C530D507C3E43A
:0600BF009FFFE49EFE22FB
:10000F00020175E493A3F8E493A34003F68001F291
:10001F0008DFF48029E493A3F85407240CC8C333F2
:10002F00C4540F4420C8834004F456800146F6DFC1
:10003F00E4800B01020408102040809001CBE47E85
:10004F00019360BCA3FF543F30E509541FFEE493B6
:10005F00A360010ECF54C025E060A840B8E493A37D
:10006F00FAE493A3F8E493A3C8C582C8CAC583CAA8
:10007F00F0A3C8C582C8CAC583CADFE9DEE780BE60
:0101E100001D
:1000C500BC000BBE0029EF8DF084FFADF022E4CC1F
:1000D500F875F008EF2FFFEE33FEEC33FCEE9DECE8
:1000E500984005FCEE9DFE0FD5F0E9E4CEFD22ED2E
:1000F500F8F5F0EE8420D21CFEADF075F008EF2F78
:10010500FFED33FD4007985006D5F0F222C398FD68
:050115000FD5F0EA2205
:00000001FF
