:0E0262003F065B4F666D7D077F6FFEFDFBF76D
:0A027000020F0000011200011150FE
:10020600E4FDFCC3ED9FEC9E5015E4FBFA0BBB002E
:0F021600010AEB64724A70F50DBD00010C80E423
:0102250022B6
:10025200D2AFD2A9758902758ADC758CDCD28C2268
:04009A00AB07AA0600
:10009E007C037DE812011B7E007F64CFCDCFCECCDA
:1000AE00CE12011B8F0C7C007D64AF03AE021201D9
:1000BE001B7E007F0ACFCDCFCECCCE12011B8F0D73
:1000CE00AE02AF037C007D0A12011BAF057580FFE7
:1000DE00D2A7E50E90026C93F580C2A77580FFE55E
:1000EE000E14600D14601024027017D2A6E50C8059
:1000FE0009D2A6E50D8003D2A6EF90026293F58099
:0C010E00C2A6050EE50EB40303E4F50ED6
:01011A0022C2
:03000B00020226C8
:10022600C0E0C0D0E512D395115004D2EC8002C2D2
:08023600EC0512D0D0D0E0323B
:1001E500E4FDFCC2A1EF30E704D2A08002C2A0D298
:1001F500A1EF25E0FF0DBD00010CED64084C70E397
:0102050022D6
:1001C300E4FFFEFDFCEF25E0FFEE33FED2A1C2A16A
:1001D30030A5034307010DBD00010CED640C4C7009
:0101E300E437
:0101E40022F8
:10023E00C2B7C2A11201E5C2A10000000000120166
:03024E00C3D2B761
:01025100228A
:10017000E4F508F509F50AF50B120252D3742C9533
:1001800009740195085024E4F508F509C2AF7F947D
:1001900012023E8E0A8F0BE50AC4F854F0C8E50B34
:1001A000C4540F48F511E4F512D2AFAF117E00121E
:1001B000009A0509E509700205087F017E00120218
:0301C0000680B9FD
:0300000002000EED
:0C000E00787FE4F6D8FD758112020055E1
:10011B00BC000BBE0029EF8DF084FFADF022E4CCC8
:10012B00F875F008EF2FFFEE33FEEC33FCEE9DEC91
:10013B00984005FCEE9DFE0FD5F0E9E4CEFD22EDD7
:10014B00F8F5F0EE8420D21CFEADF075F008EF2F21
:10015B00FFED33FD4007985006D5F0F222C398FD12
:05016B000FD5F0EA22AF
:10001A00020170E493A3F8E493A34003F68001F28B
:10002A0008DFF48029E493A3F85407240CC8C333E7
:10003A00C4540F4420C8834004F456800146F6DFB6
:10004A00E4800B0102040810204080900270E47ED4
:10005A00019360BCA3FF543F30E509541FFEE493AB
:10006A00A360010ECF54C025E060A840B8E493A372
:10007A00FAE493A3F8E493A3C8C582C8CAC583CA9D
:10008A00F0A3C8C582C8CAC583CADFE9DEE780BE55
:01027A000083
:00000001FF
