:0A017F003F065B4F666D7D077F6F42
:040189000208000068
:10013F00E4FDFCC3ED9FEC9E5015E4FBFA0BBB00F6
:0F014F00010AEB64724A70F50DBD00010C80E4EB
:01015E00227E
:1000030075B0F0E5B064F0606A7F0A7E0012013FCC
:10001300E5B064F0605DAFB0EF2490602324C0606E
:100023001724E0600B24F0701DE4F508F509801631
:10003300750800750901800E7508007509028006B0
:1000430075080075090375B00FAFB0EF24F960139D
:1000530024FC600B24FE6003148013740480067474
:10006300088002740C2509F509E43508F508E5B0A4
:10007300B40FFB75B0FFE5B0F46034AFB0EF240903
:10008300602224FC601624FE600A14701DE4F50847
:10009300F5098016750800750901800E750800754D
:1000A30009028006750800750903E5B0B4FFFB2259
:10015F00D2A77580FEC2A7120003D2A6747F25090D
:10016F00F58274013508F583E493F580C2A680E724
:030000000200B348
:0C00B300787FE4F6D8FD7581090200FAA0
:1000BF0002015FE493A3F8E493A34003F68001F2F7
:1000CF0008DFF48029E493A3F85407240CC8C33342
:1000DF00C4540F4420C8834004F456800146F6DF11
:1000EF00E4800B0102040810204080900189E47E17
:1000FF00019360BCA3FF543F30E509541FFEE49306
:10010F00A360010ECF54C025E060A840B8E493A3CC
:10011F00FAE493A3F8E493A3C8C582C8CAC583CAF7
:10012F00F0A3C8C582C8CAC583CADFE9DEE780BEAF
:01018D000071
:00000001FF
