:1000E7001808FFBBAAAA3BA1D7FFFFD31B9B5B0046
:1000F700BDB0E7E7FFE7E7E7E7E718200040201094
:10010700080402000040201008040201804000108B
:0401170008040201D5
:10011C00E4FDFCC2B5EF30E004D2B48002C2B4D22C
:10012C00B5EFC313FF0DBD00010CED64084C70E37B
:01013C0022A0
:10008F00E4FBFAE4F538F539900000C2B6AF82EB25
:10009F0075F008A424082FF8E6FF12011CAF82EBBD
:1000AF0075F008A424202FF8E6FF12011CD2B6A386
:1000BF00E5826408458370D30539E5397002053848
:1000CF00C394E8E5386480948340BD0BBB00010AFC
:0800DF00EB64034A70AD80A838
:03000000020003F8
:0C000300787FE4F6D8FD75813902004AD0
:10000F0002008FE493A3F8E493A34003F68001F278
:10001F0008DFF48029E493A3F85407240CC8C333F2
:10002F00C4540F4420C8834004F456800146F6DFC1
:10003F00E4800B01020408102040809000E7E47E6A
:10004F00019360BCA3FF543F30E509541FFEE493B6
:10005F00A360010ECF54C025E060A840B8E493A37D
:10006F00FAE493A3F8E493A3C8C582C8CAC583CAA8
:10007F00F0A3C8C582C8CAC583CADFE9DEE780BE60
:01011B0000E3
:00000001FF
