:100123004C4544D2D1BEADB4F2BFAAA3A1004C4505
:0F01330044D2D1BEADB9D8B1D5A3A1000D0A00F9
:0E017100020B00000308FF0123030DFF013104
:10000300E4FDFCC3ED9FEC9E5015E4FBFA0BBB0033
:0F001300010AEB64724A70F50DBD00010C80E428
:0100220022BB
:0E018000D2AF758920758BFD758DFDD28E2254
:09018E00D2ACC29FD29ED29C2289
:030023000200B226
:1000B200C0E0C0F0C083C082C0D075D000C000C014
:1000C20001C002C003C004C005C006C00730983694
:1000D200C298AF99750B008F0CE50C450B600B7540
:1000E2009000AB08AA09A90A80097590FFAB0DAA76
:1000F2000EA90F12015B7BFF7A01793F12015B7F30
:10010200E87E03120003D007D006D005D004D00346
:10011200D002D001D000D0D0D082D083D0F0D0E0B5
:0101220032AA
:0801970012018012018E80FEAE
:10015B001201426010F5993099FDC299740129F989
:06016B00E43AFA80EB22E9
:03000000020026D5
:0C002600787FE4F6D8FD75810F02006DB4
:10014200BB010689828A83E0225002E722BBFE02BB
:09015200E32289828A83E49322EE
:10003200020197E493A3F8E493A34003F68001F24C
:1000420008DFF48029E493A3F85407240CC8C333CF
:10005200C4540F4420C8834004F456800146F6DF9E
:10006200E4800B0102040810204080900171E47EBC
:10007200019360BCA3FF543F30E509541FFEE49393
:10008200A360010ECF54C025E060A840B8E493A35A
:10009200FAE493A3F8E493A3C8C582C8CAC583CA85
:1000A200F0A3C8C582C8CAC583CADFE9DEE780BE3D
:01017F00007F
:00000001FF
