:10086B002564202563202564203D203F0052494705
:0B087B004854210057524F4E47210007
:10082B00025F0000025300000265000C026300022D
:10083B0008550000000000000000025D0000024DA2
:02084B000000AB
:10084E00D2AFD2A9D28C758901758CD5758A9ED2FC
:0D085E00ABD28E438910758DED758BFF2296
:03000B000206F8F2
:1006F800C0E0C0F0C083C082C0D075D000C000C0C8
:1007080001C002C003C004C005C006C007758CD56F
:10071800758A9E1207E27F201208CF1207E2E5547D
:100728002430FF1208CFD007D006D005D004D0035C
:10073800D002D001D000D0D0D082D083D0F0D0E089
:01074800327E
:03001B0002089A3E
:10089A00C0E0758DED758BFF055EE55E7002055D46
:0308AA00D0E03269
:0B069600E4FDFC7F01FE1207EA7F2A52
:0206A1008F24A4
:1006A300AE4DAF4E12078B054EE54E7002054D124F
:1006B30007497C007D641203A58C4F8D50120749B6
:1006C3007C007D641203A58C518D52753CFF753DF2
:1006D30008753E6B854F3F855040852441855142C7
:1006E3008552437B007A00792512007A7B007A00D9
:0506F30079250207BD9E
:1008AD007580FFC2B5D2B6D2B4AF80C2B4EF20E727
:0108BD00F644
:0108BE002217
:1008BF00AE071208ADC2B5C2B68E80D2B4C2B42292
:1008CF00AE071208ADD2B5C2B68E80D2B4C2B42272
:040807007F0A7E00E6
:10080B00E4FDFCC3ED9FEC9E5015E4FBFA0BBB0023
:0F081B00010AEB64724A70F50DBD00010C80E418
:01082A0022AB
:1007BD008B398A3A893BAB39AA3AA93B12037A6045
:1007CD0013053BE53B7002053A14F912037AFF124B
:0507DD0008CF80E222BC
:0807E200AD66AC65AF64AE63C7
:1007EA00AB07AA06EB64014A7005ED44808009EB69
:0D07FA0064024A7007ED44C0FF1208BF22E0
:100886007F381208BF7F0F1208BF7F011208BF7F93
:04089600060208BF8F
:10055F0020B02712080720B021D3E566940CE5657B
:10056F0094004008E566156670021565AD66AC65CA
:10057F007F027E001207EA30B0FD20B12712080774
:10058F0020B121C3E566940FE56594005008056618
:10059F00E56670020565AD66AC657F027E001207E9
:1005AF00EA30B1FD20B22812080720B222C3E55469
:1005BF009409E553940050140554E5547002055303
:1005CF00E56625E0243DF8A65308A65430B2FD2079
:1005DF00B32812080720B322D3E5549400E55394AF
:1005EF00004014E554155470021553E56625E024B8
:0B05FF003DF8A65308A65430B3FD22BF
:1004A500E4F522F52312088612084E120696AC5181
:1004B500AD52AE4FAF501203938E228F23E55E648B
:1004C500B87004E55D640B6003020559F561F562DA
:1004D500AE5FAF607C007D0A120393E56225E024E0
:1004E50055F8E6FC08E62FF560EE3CF55F0562E59C
:1004F50062700205616404456170D5E560B5231637
:10050500E55FB52211E4FDFC7F02FE1207EA7BFFE1
:100515007A087978800FE4FDFC7F02FE1207EA7BFA
:10052500FF7A08797F1207BD7FB87E0B12080B7F13
:10053500011208BF120696AC51AD52AE4FAF501224
:1005450003938E228F23E4F55FF560F55DF55EF587
:0A0555006575660C12055F0204C212
:0300000002060AEB
:0C060A00787FE4F6D8FD75816602065189
:10037A00BB010689828A83E0225002E722BBFE0281
:09038A00E32289828A83E49322B4
:10039300EF8DF0A4A8F0CF8CF0A428CE8DF0A42E7E
:0203A300FE2238
:1003A500C2D5EC30E709B2D5E4C39DFDE49CFCEE73
:1003B50030E715B2D5E4C39FFFE49EFE12041AC3CD
:1003C500E49DFDE49CFC800312041A30D507C3E4C8
:0603D5009FFFE49EFE22E2
:10001E00E548243CF8E60548227839300702783C5A
:10002E00E475F00112046F02037A2000EB7F2ED2EA
:10003E00008018EF540F2490D43440D4FF30040BBA
:10004E00EF24BFB41A0050032461FFE54960021586
:10005E0049054CE54C7002054B30070D7839E475B7
:10006E00F00112046FEF0204080207967403D20720
:10007E008003E4C207F5488B398A3A893BE4F54997
:10008E00F54BF54CE54960077F2012005980F57558
:10009E004AFFC201C200C202C203C205C206C208A2
:1000AE00120027FF700D3007057F0012006AAF4C5B
:1000BE00AE4B22B4255FC2D5C204120027FF24D056
:1000CE00B40A00501A75F00A784930D50508B6FF03
:1000DE000106C6A426F620D5047002D20380D924C8
:1000EE00CFB41A00EF5004C2E5D20402026AD20164
:1000FE0080C6D20080C0D20280BCD2D580BAD205D2
:10010E0080B47F201200592002077401B5490040C7
:10011E00F112001EFF120059020092D208D2068080
:10012E009512001EFB12001EFA12001EF94A4B70A9
:10013E0006793B7A037BFF20022EE549602A7E007A
:10014E008E827583001203DB60060EEE654A70F038
:10015E00C2D5EBC0E0EAC0E0E9C0E0EE1202B1D0D9
:10016E00E0F9D0E0FAD0E0FB12037AFF60AAEBC010
:10017E00E0EAC0E0E9C0E0120059D0E02401F9D075
:10018E00E03400FAD0E0FBE54A0460DCD54AD980C1
:10019E00877BFF7A0279ADD202809C79108002793A
:1001AE0008C206C2088008D2D5790A8004790AC22C
:1001BE00D5E54A047002F54AE4FAFDFEFF12001E70
:1001CE00FC7B0820011312001EFD7B1030000A126A
:1001DE00001EFE12001EFF7B20EC3382D592D550FE
:1001EE0013C3E43000069FFFE49EFEE42001039D4E
:1001FE00FDE49CFCE4CBF8C201EC700CCFCECDCC70
:10020E00E824F8F870F38017C3EF33FFEE33FEEDFA
:10021E0033FDEC33FCEB33FB994002FB0FD8E9EBDB
:10022E00300105F8D0E0C448B201C0E00AEC4D4EF2
:10023E004F78207B0070C2EAB54A0040BCC0E01285
:10024E0002B3D0F0D0E0200104C4C0E0C4B201C0BB
:10025E00F0120042D0F0D5F0EB02009212047F01B2
:10026E002F5301A95801004C00FC4201AD4F01B5BE
:0F027E004401B54901154301BB55019F46019F3E
:10028D0045019F47035B5001042D01082E012B2BC7
:10029D00010C2301292003442A00C4480000012336
:1002AD003F3F3F00790AA2D5200314300509B9104C
:1002BD00020404B9080104A2D5200602500104204D
:1002CD0002689202B549005034C0E07F2030031916
:1002DD007F30A20272067205500F12030AC202C2CB
:1002ED0006C205C2087F30800F300503E9C0E01259
:1002FD000059300503D0E0F9D0E0B549CC300517F1
:10030D007F30B9100C1200597F583004077F788068
:10031D0003B908031200593002057F2D0200597FE1
:10032D00202008F87F2B2006F322920280CF286E22
:10033D00756C6C2900D20112001E3001F8C20178D3
:10034D004930D50108F60200C42D5043495812001A
:10035D001E2403B405004001E49003569312004A95
:0D036D00743A12004AD2037549040201A936
:10074900AC08AD09AE0AAF0B7810EC4D4E4F7004F2
:100759007CA57DA5C3EC13FCED13FDEE13FEEF1391
:10076900FF5010EC64CCFCED644CFDEE644EFEEFE2
:1007790064CEFFD8DF8C088D098E0A8F0BEE547F6B
:0D078900FE228E088F0974A5F50AF50B22DB
:100616000204A5E493A3F8E493A34003F68001F251
:1006260008DFF48029E493A3F85407240CC8C333E5
:10063600C4540F4420C8834004F456800146F6DFB4
:10064600E4800B010204081020408090082BE47E11
:10065600019360BCA3FF543F30E509541FFEE493A9
:10066600A360010ECF54C025E060A840B8E493A370
:10067600FAE493A3F8E493A3C8C582C8CAC583CA9B
:10068600F0A3C8C582C8CAC583CADFE9DEE780BE53
:01084D0000AA
:1003DB00BB010CE58229F582E5833AF583E02250D7
:1003EB0006E92582F8E622BBFE06E92582F8E22221
:0D03FB00E58229F582E5833AF583E493223B
:10040800BB010689828A83F0225002F722BBFE01D3
:02041800F322CD
:10041A00BC000BBE0029EF8DF084FFADF022E4CCC6
:10042A00F875F008EF2FFFEE33FEEC33FCEE9DEC8F
:10043A00984005FCEE9DFE0FD5F0E9E4CEFD22EDD5
:10044A00F8F5F0EE8420D21CFEADF075F008EF2F1F
:10045A00FFED33FD4007985006D5F0F222C398FD10
:05046A000FD5F0EA22AD
:10046F00FAE6FB0808E6F925F0F618E6CA3AF6228E
:10047F00D083D082F8E4937012740193700DA3A30C
:10048F0093F8740193F5828883E473740293686020
:06049F00EFA3A3A380DF20
:10079600EFB40A07740D1207A1740A309811A899CC
:1007A600B8130CC2983098FDA899C298B811F630C3
:0707B60099FDC299F599229B
:00000001FF
