:07005400F4F5907FC87E0067
:10005B00E4FDFCC3ED9FEC9E5015E4FBFA0BBB00DB
:0F006B00010AEB64724A70F50DBD00010C80E4D0
:01007A002263
:100003007F647E0012005B900000B2A3AF82740194
:10001300A807088002C333D8FC120054A3E5826406
:1000230008458370E57FD07E0712005BE4F583F516
:1000330082C3E5829408E583940050C4B2A3AF82DF
:100043007480A807088002C313D8FC120054A3804D
:01005300E0CC
:0300000002007B80
:0C007B00787FE4F6D8FD758107020003D1
:00000001FF
