:09014800010800010978010A0018
:10013800D2AF758902758ADC758CDCD28CD2A92283
:03000B000200EB05
:1000EB00C0E0C0D0050AE50AB4FF04D290D291E576
:1000FB0009B50A12E50814600904700AD290C2917E
:0B010B008004C290D291D0D0D0E0322E
:040116007F057E00E3
:10011A00D3EF9400EE940040147D727C00ED1D70C4
:0D012A00011CED4C70F7EF1F70E61E80E326
:0101370022A5
:10009A0012013820B01012011620B007E5086003DB
:1000AA00E4F50830B0FD20B11212011620B109E5BD
:1000BA00086401600375080130B1FD20B20F120116
:1000CA001620B209E509C394AA5002050920B3C350
:1000DA0012011620B3BDE509D3940040B615098074
:0100EA00B263
:0300000002000EED
:0C000E00787FE4F6D8FD75810A020055E9
:10001A0002009AE493A3F8E493A34003F68001F262
:10002A0008DFF48029E493A3F85407240CC8C333E7
:10003A00C4540F4420C8834004F456800146F6DFB6
:10004A00E4800B0102040810204080900148E47EFD
:10005A00019360BCA3FF543F30E509541FFEE493AB
:10006A00A360010ECF54C025E060A840B8E493A372
:10007A00FAE493A3F8E493A3C8C582C8CAC583CA9D
:10008A00F0A3C8C582C8CAC583CADFE9DEE780BE55
:0101510000AD
:00000001FF
