:10000E003F065B4F666D7D077F6F00FE00FD00FBB8
:0C026200020A0000020C0000020800006C
:1001E800D2AFD2A9D2ABD2ACD28CD28E75892175BE
:1001F8008AFF758CED758BFD758DFDD29CC29FD2E3
:020208009E2234
:10020A00E4FDFCC3ED9FEC9E5015E4FBFA0BBB002A
:0F021A00010AEB64724A70F50DBD00010C80E41F
:0102290022B2
:04002600AB07AA0674
:10002A007C007D641201528E0E8F0F7C007D0AAF18
:10003A0003AE021201527C007D0A1201528C108D0D
:10004A0011AE02AF037C007D0A1201527580FFD205
:10005A00A7E50925E0FFE50833FE74182FF5827439
:10006A00003EF583740193F580C2A7E508703AE56E
:10007A00091460151460202402702ED2A6740E256D
:10008A000FF5827400350E8018D2A6740E2511F56C
:10009A008274003510800AD2A6740E2DF58274007F
:1000AA003CF583E493F580C2A60509E509700205CB
:0B00BA0008640345087004F508F50910
:0100C5002218
:03000B000201A748
:1001A700C0E0C0F0C083C082C0D075D000C000C01E
:1001B70002C003C004C005C006C007758CED758A70
:1001C700FFAF0DAE0C120026D007D006D005D00425
:1001D700D003D002D000D0D0D082D083D0F0D0E0EE
:0101E70032E5
:0300230002022AAC
:10022A00C0D075D000C007309902C299309809AF82
:0D023A0099750C008F0DC298D007D0D032FE
:1002470020B0177F0A7E0012020A20B00A050BE5CC
:0B0257000B7002050AF59930B0FD2283
:080003001201E812024780FB24
:030000000200C635
:0C00C600787FE4F6D8FD75811102010D71
:10015200BC000BBE0029EF8DF084FFADF022E4CC91
:10016200F875F008EF2FFFEE33FEEC33FCEE9DEC5A
:10017200984005FCEE9DFE0FD5F0E9E4CEFD22EDA0
:10018200F8F5F0EE8420D21CFEADF075F008EF2FEA
:10019200FFED33FD4007985006D5F0F222C398FDDB
:0501A2000FD5F0EA2278
:1000D200020003E493A3F8E493A34003F68001F241
:1000E20008DFF48029E493A3F85407240CC8C3332F
:1000F200C4540F4420C8834004F456800146F6DFFE
:10010200E4800B0102040810204080900262E47E29
:10011200019360BCA3FF543F30E509541FFEE493F2
:10012200A360010ECF54C025E060A840B8E493A3B9
:10013200FAE493A3F8E493A3C8C582C8CAC583CAE4
:10014200F0A3C8C582C8CAC583CADFE9DEE780BE9C
:01026E00008F
:00000001FF
