:0601ED00014B7801440102
:1001A200D2AF758902E4F58AF58CD2A9D28CD288B5
:1001B200D2A8438920758BDC758DDCC28EC2ABD28E
:0201C200902289
:03000B0002000EE2
:0D000E00C0E00546E54670020545D0E03231
:03001B000201C41B
:1001C400C0E0C0D0054CE54CB4FF02D290E54BB57D
:0901D4004C02C290D0D0D0E03200
:030003000200AA4E
:0900AA00C0E0C0D075D000C00018
:1000B300300040C3E5469420E54594004010E546F2
:1000C3009435E5459400500675210075220074238C
:1000D3002522F8A6460522E5227002052175450072
:1000E300754600642145217012D201F521F522C223
:0B00F300008008D20075450075460033
:0700FE00D000D0D0D0E032A9
:10010500750800750901E4FFFEE4FDFC742325096B
:10011500F8E6D39405400874472FF8E64480F6C303
:10012500ED9407EC9400500C74472FF8C000E6C31B
:1001350013D000F60509E509700205080DBD00019B
:100145000CED64084C70C50FBF00010EEF64044E42
:0501550070B7E4FEFF9D
:01015A002282
:10015B00E54924C0602824FC602F24FD6010240294
:10016B007034E5446003E4F544D28ED2AB22E5440F
:10017B0064016003754401C28EC2ABC29022E54B91
:10018B00C394A05011740A8009E54BD3940A40061E
:07019B0074F6254BF54B2221
:1001DD001201A23001FDC20112010512015B80F373
:0300000002001EDD
:0C001E00787FE4F6D8FD75814C02006587
:10002A000201DDE493A3F8E493A34003F68001F20E
:10003A0008DFF48029E493A3F85407240CC8C333D7
:10004A00C4540F4420C8834004F456800146F6DFA6
:10005A00E4800B01020408102040809001EDE47E48
:10006A00019360BCA3FF543F30E509541FFEE4939B
:10007A00A360010ECF54C025E060A840B8E493A362
:10008A00FAE493A3F8E493A3C8C582C8CAC583CA8D
:10009A00F0A3C8C582C8CAC583CADFE9DEE780BE45
:0101F300000B
:00000001FF
