:030169000D0A007C
:1000C900202808C4E3BAC3000000000000000000B3
:1000D90000000000000000BBB6D3ADCAB9D3C3B558
:0B00E900A5C6ACBBFAA3A100000000FC
:10012000E4FDFCC3ED9FEC9E5015E4FBFA0BBB0015
:0F013000010AEB64724A70F50DBD00010C80E40A
:01013F00229D
:10015900D28E438920758DFD758BFDC29FD29E225B
:100140001200F56010F5993099FDC299740129F9F2
:09015000E43AFA80EBE402010E2E
:10008F00120159E4F530F531E53175F014A4240867
:10009F00F9E4FAFB1201407BFF7A01796912014002
:1000AF007FE87E031201200531E53170020530C370
:0A00BF009402E530940040D080C99F
:03000000020003F8
:0C000300787FE4F6D8FD75813102004AD8
:1000F500BB010689828A83E0225002E722BBFE0209
:09010500E32289828A83E493223B
:10010E00BB010689828A83F0225002F722BBFE01D0
:02011E00F322CA
:10000F0002008FE493A3F8E493A34003F68001F278
:10001F0008DFF48029E493A3F85407240CC8C333F2
:10002F00C4540F4420C8834004F456800146F6DFC1
:10003F00E4800B01020408102040809000C9E47E88
:10004F00019360BCA3FF543F30E509541FFEE493B6
:10005F00A360010ECF54C025E060A840B8E493A37D
:10006F00FAE493A3F8E493A3C8C582C8CAC583CAA8
:10007F00F0A3C8C582C8CAC583CADFE9DEE780BE60
:0100F400000B
:00000001FF
