:1001FD00103120FEFDFB06666D7D5B4F666D7D0744
:04020D007F6FC1003E
:1001A800E4FDFCC3ED9FEC9E5015E4FBFA0BBB008D
:0F01B800010AEB64724A70F50DBD00010C80E482
:0101C7002215
:02025D0000227D
:0C024200D2A1D2A012025DC2A002025D97
:0E023400C2A1C2A0D2A112025DD2A002025D40
:10021200C2A1D2A112025D30A004C2A1D322C2A106
:02022200C322F5
:1001E800C2A1300104D2A08002C2A0D2A112025D35
:0501F800C2A1D2A0220B
:1001C800E4FFFEFDED25E0FDD2A130A003430501CB
:0F01D800C2A10FBF00010EEF64084E70E7AF0524
:0101E70022F5
:10015B008F0B8D0C1202427FA0120183120212929E
:10016B0000AF0B1201831202129200AF0C1201832B
:08017B0012021292000202348C
:02012B008F0B38
:10012D001202427FA01201831202129200AF0B1233
:10013D0001831202121202427FA1120183120212D6
:0D014D0092001201C8D2011201E812023422
:01015A002282
:10018300E4FDFCC2A1EF30E704D2A08002C2A0EFDD
:1001930025E0FFD2A10DBD00010CED64084C70E316
:0401A300C2A1D2A083
:0101A7002235
:10022400D2ABD2AC758920758DFD758BFDD28E2233
:07025600D29CC29FD29E2240
:08024E008F993099FDC299223D
:10000300120224120256C2AFE4F50AF508F5097F7D
:10001300147E001201A874312509F8E6FDAF0A1217
:10002300015B050A0509E50970020508C39410E59B
:1000330008940040DA300005E4F58080037580FF02
:10004300E4F50AF508F5097F147E001201A8AF0A4A
:1000530012012B74212509F8A607050A0509E509EC
:1000630070020508C39410E508940040DA300005D7
:10007300E4F58080037580FFD2AFE4F508F50974D9
:10008300212509F8E6FF12024E0509E5097002056C
:0C00930008C39410E508940040E580FECE
:0300000002009F5C
:0C009F00787FE4F6D8FD7581400200E691
:1000AB00020003E493A3F8E493A34003F68001F268
:1000BB0008DFF48029E493A3F85407240CC8C33356
:1000CB00C4540F4420C8834004F456800146F6DF25
:1000DB00E4800B01020408102040809001FDE47EB7
:1000EB00019360BCA3FF543F30E509541FFEE4931A
:1000FB00A360010ECF54C025E060A840B8E493A3E1
:10010B00FAE493A3F8E493A3C8C582C8CAC583CA0B
:10011B00F0A3C8C582C8CAC583CADFE9DEE780BEC3
:0102110000EC
:00000001FF
