:1000ED00D2AF758922E4F58AF58CD2A9D28CD2884B
:0F00FD00D2A8758BFD758DFDC29FD29ED28E222B
:03000B0002010CE3
:0D010C00C0E00545E54570020544D0E03235
:0300030002000EEA
:09000E00C0E0C0D075D000C000B4
:10001700300040C3E5459420E54494004010E54591
:100027009435E54494005006752100752200742329
:100037002522F8A6450522E5227002052175440010
:10004700754500642145217012D201F521F522C2C0
:0B005700008008D200754400754500D1
:07006200D000D0D0D0E03245
:10006900750800750901E4FFFEE4FDFC7423250908
:10007900F8E6D39405400874462FF8E64480F6C3A1
:10008900ED9407EC9400500C74462FF8C000E6C3B9
:1000990013D000F60509E509700205080DBD000138
:1000A9000CED64084C70C50FBF00010EEF64044EDF
:0700B90070B7D202E4FEFF64
:0100C000221D
:1000C1001200ED3001FD120069C2013002F5E4FFBA
:1000D100FE74462FF8E6F5993099FDC2990FBF00DD
:0C00E100010EEF64044E70E9C20280D7EB
:03000000020119E1
:0C011900787FE4F6D8FD7581490200C132
:00000001FF
